{
  "_format": "hh-sol-artifact-1",
  "contractName": "CryptoFighters",
  "sourceName": "contracts/CryptoFighters.sol",
  "abi": [
    {
      "inputs": [
        {
          "internalType": "string[]",
          "name": "characterNames",
          "type": "string[]"
        },
        {
          "internalType": "string[]",
          "name": "characterImageURIs",
          "type": "string[]"
        },
        {
          "internalType": "uint256[]",
          "name": "characterHp",
          "type": "uint256[]"
        },
        {
          "internalType": "uint256[]",
          "name": "characterAttackDmg",
          "type": "uint256[]"
        },
        {
          "internalType": "string",
          "name": "bossName",
          "type": "string"
        },
        {
          "internalType": "string",
          "name": "bossImageURI",
          "type": "string"
        },
        {
          "internalType": "uint256",
          "name": "bossHp",
          "type": "uint256"
        },
        {
          "internalType": "uint256",
          "name": "bossAttackDamage",
          "type": "uint256"
        }
      ],
      "stateMutability": "nonpayable",
      "type": "constructor"
    },
    {
      "anonymous": false,
      "inputs": [
        {
          "indexed": true,
          "internalType": "address",
          "name": "owner",
          "type": "address"
        },
        {
          "indexed": true,
          "internalType": "address",
          "name": "approved",
          "type": "address"
        },
        {
          "indexed": true,
          "internalType": "uint256",
          "name": "tokenId",
          "type": "uint256"
        }
      ],
      "name": "Approval",
      "type": "event"
    },
    {
      "anonymous": false,
      "inputs": [
        {
          "indexed": true,
          "internalType": "address",
          "name": "owner",
          "type": "address"
        },
        {
          "indexed": true,
          "internalType": "address",
          "name": "operator",
          "type": "address"
        },
        {
          "indexed": false,
          "internalType": "bool",
          "name": "approved",
          "type": "bool"
        }
      ],
      "name": "ApprovalForAll",
      "type": "event"
    },
    {
      "anonymous": false,
      "inputs": [
        {
          "indexed": false,
          "internalType": "uint256",
          "name": "newBossHp",
          "type": "uint256"
        },
        {
          "indexed": false,
          "internalType": "uint256",
          "name": "newPlayerHp",
          "type": "uint256"
        }
      ],
      "name": "AttackComplete",
      "type": "event"
    },
    {
      "anonymous": false,
      "inputs": [
        {
          "indexed": false,
          "internalType": "address",
          "name": "sender",
          "type": "address"
        },
        {
          "indexed": false,
          "internalType": "uint256",
          "name": "tokenId",
          "type": "uint256"
        },
        {
          "indexed": false,
          "internalType": "uint256",
          "name": "characterIndex",
          "type": "uint256"
        }
      ],
      "name": "CharacterNFTMinted",
      "type": "event"
    },
    {
      "anonymous": false,
      "inputs": [
        {
          "indexed": true,
          "internalType": "address",
          "name": "from",
          "type": "address"
        },
        {
          "indexed": true,
          "internalType": "address",
          "name": "to",
          "type": "address"
        },
        {
          "indexed": true,
          "internalType": "uint256",
          "name": "tokenId",
          "type": "uint256"
        }
      ],
      "name": "Transfer",
      "type": "event"
    },
    {
      "inputs": [
        {
          "internalType": "address",
          "name": "to",
          "type": "address"
        },
        {
          "internalType": "uint256",
          "name": "tokenId",
          "type": "uint256"
        }
      ],
      "name": "approve",
      "outputs": [],
      "stateMutability": "nonpayable",
      "type": "function"
    },
    {
      "inputs": [],
      "name": "attackBoss",
      "outputs": [],
      "stateMutability": "nonpayable",
      "type": "function"
    },
    {
      "inputs": [
        {
          "internalType": "address",
          "name": "owner",
          "type": "address"
        }
      ],
      "name": "balanceOf",
      "outputs": [
        {
          "internalType": "uint256",
          "name": "",
          "type": "uint256"
        }
      ],
      "stateMutability": "view",
      "type": "function"
    },
    {
      "inputs": [],
      "name": "bigBoss",
      "outputs": [
        {
          "internalType": "string",
          "name": "name",
          "type": "string"
        },
        {
          "internalType": "string",
          "name": "imageURI",
          "type": "string"
        },
        {
          "internalType": "uint256",
          "name": "hp",
          "type": "uint256"
        },
        {
          "internalType": "uint256",
          "name": "maxHp",
          "type": "uint256"
        },
        {
          "internalType": "uint256",
          "name": "attackDamage",
          "type": "uint256"
        }
      ],
      "stateMutability": "view",
      "type": "function"
    },
    {
      "inputs": [],
      "name": "checkIfUserHasNFT",
      "outputs": [
        {
          "components": [
            {
              "internalType": "uint256",
              "name": "characterIndex",
              "type": "uint256"
            },
            {
              "internalType": "string",
              "name": "name",
              "type": "string"
            },
            {
              "internalType": "string",
              "name": "imageURI",
              "type": "string"
            },
            {
              "internalType": "uint256",
              "name": "hp",
              "type": "uint256"
            },
            {
              "internalType": "uint256",
              "name": "maxHp",
              "type": "uint256"
            },
            {
              "internalType": "uint256",
              "name": "attackDamage",
              "type": "uint256"
            }
          ],
          "internalType": "struct CryptoFighters.CharacterAttributes",
          "name": "",
          "type": "tuple"
        }
      ],
      "stateMutability": "view",
      "type": "function"
    },
    {
      "inputs": [],
      "name": "getAllCharacters",
      "outputs": [
        {
          "internalType": "uint256",
          "name": "",
          "type": "uint256"
        }
      ],
      "stateMutability": "view",
      "type": "function"
    },
    {
      "inputs": [],
      "name": "getAllDefaultCharacters",
      "outputs": [
        {
          "components": [
            {
              "internalType": "uint256",
              "name": "characterIndex",
              "type": "uint256"
            },
            {
              "internalType": "string",
              "name": "name",
              "type": "string"
            },
            {
              "internalType": "string",
              "name": "imageURI",
              "type": "string"
            },
            {
              "internalType": "uint256",
              "name": "hp",
              "type": "uint256"
            },
            {
              "internalType": "uint256",
              "name": "maxHp",
              "type": "uint256"
            },
            {
              "internalType": "uint256",
              "name": "attackDamage",
              "type": "uint256"
            }
          ],
          "internalType": "struct CryptoFighters.CharacterAttributes[]",
          "name": "",
          "type": "tuple[]"
        }
      ],
      "stateMutability": "view",
      "type": "function"
    },
    {
      "inputs": [
        {
          "internalType": "uint256",
          "name": "tokenId",
          "type": "uint256"
        }
      ],
      "name": "getApproved",
      "outputs": [
        {
          "internalType": "address",
          "name": "",
          "type": "address"
        }
      ],
      "stateMutability": "view",
      "type": "function"
    },
    {
      "inputs": [],
      "name": "getBigBoss",
      "outputs": [
        {
          "components": [
            {
              "internalType": "string",
              "name": "name",
              "type": "string"
            },
            {
              "internalType": "string",
              "name": "imageURI",
              "type": "string"
            },
            {
              "internalType": "uint256",
              "name": "hp",
              "type": "uint256"
            },
            {
              "internalType": "uint256",
              "name": "maxHp",
              "type": "uint256"
            },
            {
              "internalType": "uint256",
              "name": "attackDamage",
              "type": "uint256"
            }
          ],
          "internalType": "struct CryptoFighters.BigBoss",
          "name": "",
          "type": "tuple"
        }
      ],
      "stateMutability": "view",
      "type": "function"
    },
    {
      "inputs": [
        {
          "internalType": "address",
          "name": "owner",
          "type": "address"
        },
        {
          "internalType": "address",
          "name": "operator",
          "type": "address"
        }
      ],
      "name": "isApprovedForAll",
      "outputs": [
        {
          "internalType": "bool",
          "name": "",
          "type": "bool"
        }
      ],
      "stateMutability": "view",
      "type": "function"
    },
    {
      "inputs": [
        {
          "internalType": "uint256",
          "name": "_characterIndex",
          "type": "uint256"
        }
      ],
      "name": "mintCharacterNFT",
      "outputs": [],
      "stateMutability": "nonpayable",
      "type": "function"
    },
    {
      "inputs": [],
      "name": "name",
      "outputs": [
        {
          "internalType": "string",
          "name": "",
          "type": "string"
        }
      ],
      "stateMutability": "view",
      "type": "function"
    },
    {
      "inputs": [
        {
          "internalType": "uint256",
          "name": "",
          "type": "uint256"
        }
      ],
      "name": "nftHolderAttributes",
      "outputs": [
        {
          "internalType": "uint256",
          "name": "characterIndex",
          "type": "uint256"
        },
        {
          "internalType": "string",
          "name": "name",
          "type": "string"
        },
        {
          "internalType": "string",
          "name": "imageURI",
          "type": "string"
        },
        {
          "internalType": "uint256",
          "name": "hp",
          "type": "uint256"
        },
        {
          "internalType": "uint256",
          "name": "maxHp",
          "type": "uint256"
        },
        {
          "internalType": "uint256",
          "name": "attackDamage",
          "type": "uint256"
        }
      ],
      "stateMutability": "view",
      "type": "function"
    },
    {
      "inputs": [
        {
          "internalType": "address",
          "name": "",
          "type": "address"
        }
      ],
      "name": "nftHolders",
      "outputs": [
        {
          "internalType": "uint256",
          "name": "",
          "type": "uint256"
        }
      ],
      "stateMutability": "view",
      "type": "function"
    },
    {
      "inputs": [
        {
          "internalType": "uint256",
          "name": "tokenId",
          "type": "uint256"
        }
      ],
      "name": "ownerOf",
      "outputs": [
        {
          "internalType": "address",
          "name": "",
          "type": "address"
        }
      ],
      "stateMutability": "view",
      "type": "function"
    },
    {
      "inputs": [
        {
          "internalType": "address",
          "name": "from",
          "type": "address"
        },
        {
          "internalType": "address",
          "name": "to",
          "type": "address"
        },
        {
          "internalType": "uint256",
          "name": "tokenId",
          "type": "uint256"
        }
      ],
      "name": "safeTransferFrom",
      "outputs": [],
      "stateMutability": "nonpayable",
      "type": "function"
    },
    {
      "inputs": [
        {
          "internalType": "address",
          "name": "from",
          "type": "address"
        },
        {
          "internalType": "address",
          "name": "to",
          "type": "address"
        },
        {
          "internalType": "uint256",
          "name": "tokenId",
          "type": "uint256"
        },
        {
          "internalType": "bytes",
          "name": "_data",
          "type": "bytes"
        }
      ],
      "name": "safeTransferFrom",
      "outputs": [],
      "stateMutability": "nonpayable",
      "type": "function"
    },
    {
      "inputs": [
        {
          "internalType": "address",
          "name": "operator",
          "type": "address"
        },
        {
          "internalType": "bool",
          "name": "approved",
          "type": "bool"
        }
      ],
      "name": "setApprovalForAll",
      "outputs": [],
      "stateMutability": "nonpayable",
      "type": "function"
    },
    {
      "inputs": [
        {
          "internalType": "bytes4",
          "name": "interfaceId",
          "type": "bytes4"
        }
      ],
      "name": "supportsInterface",
      "outputs": [
        {
          "internalType": "bool",
          "name": "",
          "type": "bool"
        }
      ],
      "stateMutability": "view",
      "type": "function"
    },
    {
      "inputs": [],
      "name": "symbol",
      "outputs": [
        {
          "internalType": "string",
          "name": "",
          "type": "string"
        }
      ],
      "stateMutability": "view",
      "type": "function"
    },
    {
      "inputs": [
        {
          "internalType": "uint256",
          "name": "_tokenId",
          "type": "uint256"
        }
      ],
      "name": "tokenURI",
      "outputs": [
        {
          "internalType": "string",
          "name": "",
          "type": "string"
        }
      ],
      "stateMutability": "view",
      "type": "function"
    },
    {
      "inputs": [
        {
          "internalType": "address",
          "name": "from",
          "type": "address"
        },
        {
          "internalType": "address",
          "name": "to",
          "type": "address"
        },
        {
          "internalType": "uint256",
          "name": "tokenId",
          "type": "uint256"
        }
      ],
      "name": "transferFrom",
      "outputs": [],
      "stateMutability": "nonpayable",
      "type": "function"
    }
  ],
  "bytecode": "0x60806040523480156200001157600080fd5b506040516200557d3803806200557d833981810160405281019062000037919062000867565b6040518060400160405280600f81526020017f43727970746f20466967687465727300000000000000000000000000000000008152506040518060400160405280600481526020017f43464748000000000000000000000000000000000000000000000000000000008152508160009080519060200190620000bb929190620005fa565b508060019080519060200190620000d4929190620005fa565b5050506040518060a0016040528085815260200184815260200183815260200183815260200182815250600a60008201518160000190805190602001906200011e929190620005fa565b5060208201518160010190805190602001906200013d929190620005fa565b50604082015181600201556060820151816003015560808201518160040155905050620002c06040518060600160405280602a815260200162005553602a9139600a60000180546200018f9062000bf2565b80601f0160208091040260200160405190810160405280929190818152602001828054620001bd9062000bf2565b80156200020e5780601f10620001e2576101008083540402835291602001916200020e565b820191906000526020600020905b815481529060010190602001808311620001f057829003601f168201915b5050505050600a60020154600a60010180546200022b9062000bf2565b80601f0160208091040260200160405190810160405280929190818152602001828054620002599062000bf2565b8015620002aa5780601f106200027e57610100808354040283529160200191620002aa565b820191906000526020600020905b8154815290600101906020018083116200028c57829003601f168201915b50505050506200050f60201b62001c971760201c565b60005b8851811015620004e95760076040518060c001604052808381526020018b84815181106200031a577f4e487b7100000000000000000000000000000000000000000000000000000000600052603260045260246000fd5b602002602001015181526020018a848151811062000361577f4e487b7100000000000000000000000000000000000000000000000000000000600052603260045260246000fd5b60200260200101518152602001898481518110620003a8577f4e487b7100000000000000000000000000000000000000000000000000000000600052603260045260246000fd5b60200260200101518152602001898481518110620003ef577f4e487b7100000000000000000000000000000000000000000000000000000000600052603260045260246000fd5b6020026020010151815260200188848151811062000436577f4e487b7100000000000000000000000000000000000000000000000000000000600052603260045260246000fd5b6020026020010151815250908060018154018082558091505060019003906000526020600020906006020160009091909190915060008201518160000155602082015181600101908051906020019062000492929190620005fa565b506040820151816002019080519060200190620004b1929190620005fa565b50606082015181600301556080820151816004015560a082015181600501555050600181620004e1919062000b55565b9050620002c3565b50620005016006620005bb60201b62001d391760201c565b505050505050505062000ce0565b620005b5848484846040516024016200052c949392919062000a12565b6040516020818303038152906040527f8d142cdd000000000000000000000000000000000000000000000000000000007bffffffffffffffffffffffffffffffffffffffffffffffffffffffff19166020820180517bffffffffffffffffffffffffffffffffffffffffffffffffffffffff8381831617835250505050620005d160201b60201c565b50505050565b6001816000016000828254019250508190555050565b60008151905060006a636f6e736f6c652e6c6f679050602083016000808483855afa5050505050565b828054620006089062000bf2565b90600052602060002090601f0160209004810192826200062c576000855562000678565b82601f106200064757805160ff191683800117855562000678565b8280016001018555821562000678579182015b82811115620006775782518255916020019190600101906200065a565b5b5090506200068791906200068b565b5090565b5b80821115620006a65760008160009055506001016200068c565b5090565b6000620006c1620006bb8462000aa8565b62000a74565b9050808382526020820190508260005b85811015620007055781518501620006ea888262000823565b845260208401935060208301925050600181019050620006d1565b5050509392505050565b600062000726620007208462000ad7565b62000a74565b905080838252602082019050828560208602820111156200074657600080fd5b60005b858110156200077a57816200075f888262000850565b84526020840193506020830192505060018101905062000749565b5050509392505050565b60006200079b620007958462000b06565b62000a74565b905082815260208101848484011115620007b457600080fd5b620007c184828562000bbc565b509392505050565b600082601f830112620007db57600080fd5b8151620007ed848260208601620006aa565b91505092915050565b600082601f8301126200080857600080fd5b81516200081a8482602086016200070f565b91505092915050565b600082601f8301126200083557600080fd5b81516200084784826020860162000784565b91505092915050565b600081519050620008618162000cc6565b92915050565b600080600080600080600080610100898b0312156200088557600080fd5b600089015167ffffffffffffffff811115620008a057600080fd5b620008ae8b828c01620007c9565b985050602089015167ffffffffffffffff811115620008cc57600080fd5b620008da8b828c01620007c9565b975050604089015167ffffffffffffffff811115620008f857600080fd5b620009068b828c01620007f6565b965050606089015167ffffffffffffffff8111156200092457600080fd5b620009328b828c01620007f6565b955050608089015167ffffffffffffffff8111156200095057600080fd5b6200095e8b828c0162000823565b94505060a089015167ffffffffffffffff8111156200097c57600080fd5b6200098a8b828c0162000823565b93505060c06200099d8b828c0162000850565b92505060e0620009b08b828c0162000850565b9150509295985092959890939650565b6000620009cd8262000b39565b620009d9818562000b44565b9350620009eb81856020860162000bbc565b620009f68162000cb5565b840191505092915050565b62000a0c8162000bb2565b82525050565b6000608082019050818103600083015262000a2e8187620009c0565b9050818103602083015262000a448186620009c0565b905062000a55604083018562000a01565b818103606083015262000a698184620009c0565b905095945050505050565b6000604051905081810181811067ffffffffffffffff8211171562000a9e5762000a9d62000c86565b5b8060405250919050565b600067ffffffffffffffff82111562000ac65762000ac562000c86565b5b602082029050602081019050919050565b600067ffffffffffffffff82111562000af55762000af462000c86565b5b602082029050602081019050919050565b600067ffffffffffffffff82111562000b245762000b2362000c86565b5b601f19601f8301169050602081019050919050565b600081519050919050565b600082825260208201905092915050565b600062000b628262000bb2565b915062000b6f8362000bb2565b9250827fffffffffffffffffffffffffffffffffffffffffffffffffffffffffffffffff0382111562000ba75762000ba662000c28565b5b828201905092915050565b6000819050919050565b60005b8381101562000bdc57808201518184015260208101905062000bbf565b8381111562000bec576000848401525b50505050565b6000600282049050600182168062000c0b57607f821691505b6020821081141562000c225762000c2162000c57565b5b50919050565b7f4e487b7100000000000000000000000000000000000000000000000000000000600052601160045260246000fd5b7f4e487b7100000000000000000000000000000000000000000000000000000000600052602260045260246000fd5b7f4e487b7100000000000000000000000000000000000000000000000000000000600052604160045260246000fd5b6000601f19601f8301169050919050565b62000cd18162000bb2565b811462000cdd57600080fd5b50565b6148638062000cf06000396000f3fe608060405234801561001057600080fd5b50600436106101425760003560e01c806395d89b41116100b8578063b953084e1161007c578063b953084e14610392578063c87b56dd146103b0578063c8cf27f4146103e0578063d4f24c5b146103fe578063e985e9c514610408578063f8b81ef71461043857610142565b806395d89b41146102e557806398da4c9514610303578063a22cb46514610338578063a9c3267914610354578063b88d4fde1461037657610142565b806323b872dd1161010a57806323b872dd146101ff57806342842e0e1461021b5780636352211e1461023757806370a08231146102675780637df124a11461029757806383e56dca146102c757610142565b806301ffc9a7146101475780630665f9611461017757806306fdde0314610195578063081812fc146101b3578063095ea7b3146101e3575b600080fd5b610161600480360381019061015c91906130de565b610454565b60405161016e9190613e18565b60405180910390f35b61017f610536565b60405161018c91906141b1565b60405180910390f35b61019d610692565b6040516101aa9190613e33565b60405180910390f35b6101cd60048036038101906101c89190613130565b610724565b6040516101da9190613d58565b60405180910390f35b6101fd60048036038101906101f891906130a2565b6107a9565b005b61021960048036038101906102149190612f9c565b6108c1565b005b61023560048036038101906102309190612f9c565b610921565b005b610251600480360381019061024c9190613130565b610941565b60405161025e9190613d58565b60405180910390f35b610281600480360381019061027c9190612f37565b6109f3565b60405161028e91906141f5565b60405180910390f35b6102b160048036038101906102ac9190612f37565b610aab565b6040516102be91906141f5565b60405180910390f35b6102cf610ac3565b6040516102dc91906141f5565b60405180910390f35b6102ed610ae5565b6040516102fa9190613e33565b60405180910390f35b61031d60048036038101906103189190613130565b610b77565b60405161032f96959493929190614210565b60405180910390f35b610352600480360381019061034d9190613066565b610cc3565b005b61035c610cd9565b60405161036d959493929190613f02565b60405180910390f35b610390600480360381019061038b9190612feb565b610e0d565b005b61039a610e6f565b6040516103a79190613df6565b60405180910390f35b6103ca60048036038101906103c59190613130565b61101a565b6040516103d79190613e33565b60405180910390f35b6103e8611235565b6040516103f591906141d3565b60405180910390f35b61040661140d565b005b610422600480360381019061041d9190612f60565b61180f565b60405161042f9190613e18565b60405180910390f35b610452600480360381019061044d9190613130565b6118a3565b005b60007f80ac58cd000000000000000000000000000000000000000000000000000000007bffffffffffffffffffffffffffffffffffffffffffffffffffffffff1916827bffffffffffffffffffffffffffffffffffffffffffffffffffffffff1916148061051f57507f5b5e139f000000000000000000000000000000000000000000000000000000007bffffffffffffffffffffffffffffffffffffffffffffffffffffffff1916827bffffffffffffffffffffffffffffffffffffffffffffffffffffffff1916145b8061052f575061052e82611d4f565b5b9050919050565b61053e612d5e565b600a6040518060a001604052908160008201805461055b90614561565b80601f016020809104026020016040519081016040528092919081815260200182805461058790614561565b80156105d45780601f106105a9576101008083540402835291602001916105d4565b820191906000526020600020905b8154815290600101906020018083116105b757829003601f168201915b505050505081526020016001820180546105ed90614561565b80601f016020809104026020016040519081016040528092919081815260200182805461061990614561565b80156106665780601f1061063b57610100808354040283529160200191610666565b820191906000526020600020905b81548152906001019060200180831161064957829003601f168201915b505050505081526020016002820154815260200160038201548152602001600482015481525050905090565b6060600080546106a190614561565b80601f01602080910402602001604051908101604052809291908181526020018280546106cd90614561565b801561071a5780601f106106ef5761010080835404028352916020019161071a565b820191906000526020600020905b8154815290600101906020018083116106fd57829003601f168201915b5050505050905090565b600061072f82611db9565b61076e576040517f08c379a000000000000000000000000000000000000000000000000000000000815260040161076590614131565b60405180910390fd5b6004600083815260200190815260200160002060009054906101000a900473ffffffffffffffffffffffffffffffffffffffff169050919050565b60006107b482610941565b90508073ffffffffffffffffffffffffffffffffffffffff168373ffffffffffffffffffffffffffffffffffffffff161415610825576040517f08c379a000000000000000000000000000000000000000000000000000000000815260040161081c90614171565b60405180910390fd5b8073ffffffffffffffffffffffffffffffffffffffff16610844611e25565b73ffffffffffffffffffffffffffffffffffffffff16148061087357506108728161086d611e25565b61180f565b5b6108b2576040517f08c379a00000000000000000000000000000000000000000000000000000000081526004016108a990614091565b60405180910390fd5b6108bc8383611e2d565b505050565b6108d26108cc611e25565b82611ee6565b610911576040517f08c379a000000000000000000000000000000000000000000000000000000000815260040161090890614191565b60405180910390fd5b61091c838383611fc4565b505050565b61093c83838360405180602001604052806000815250610e0d565b505050565b6000806002600084815260200190815260200160002060009054906101000a900473ffffffffffffffffffffffffffffffffffffffff169050600073ffffffffffffffffffffffffffffffffffffffff168173ffffffffffffffffffffffffffffffffffffffff1614156109ea576040517f08c379a00000000000000000000000000000000000000000000000000000000081526004016109e1906140d1565b60405180910390fd5b80915050919050565b60008073ffffffffffffffffffffffffffffffffffffffff168273ffffffffffffffffffffffffffffffffffffffff161415610a64576040517f08c379a0000000000000000000000000000000000000000000000000000000008152600401610a5b906140b1565b60405180910390fd5b600360008373ffffffffffffffffffffffffffffffffffffffff1673ffffffffffffffffffffffffffffffffffffffff168152602001908152602001600020549050919050565b60096020528060005260406000206000915090505481565b6000806001610ad26006612220565b610adc9190614477565b90508091505090565b606060018054610af490614561565b80601f0160208091040260200160405190810160405280929190818152602001828054610b2090614561565b8015610b6d5780601f10610b4257610100808354040283529160200191610b6d565b820191906000526020600020905b815481529060010190602001808311610b5057829003601f168201915b5050505050905090565b6008602052806000526040600020600091509050806000015490806001018054610ba090614561565b80601f0160208091040260200160405190810160405280929190818152602001828054610bcc90614561565b8015610c195780601f10610bee57610100808354040283529160200191610c19565b820191906000526020600020905b815481529060010190602001808311610bfc57829003601f168201915b505050505090806002018054610c2e90614561565b80601f0160208091040260200160405190810160405280929190818152602001828054610c5a90614561565b8015610ca75780601f10610c7c57610100808354040283529160200191610ca7565b820191906000526020600020905b815481529060010190602001808311610c8a57829003601f168201915b5050505050908060030154908060040154908060050154905086565b610cd5610cce611e25565b838361222e565b5050565b600a806000018054610cea90614561565b80601f0160208091040260200160405190810160405280929190818152602001828054610d1690614561565b8015610d635780601f10610d3857610100808354040283529160200191610d63565b820191906000526020600020905b815481529060010190602001808311610d4657829003601f168201915b505050505090806001018054610d7890614561565b80601f0160208091040260200160405190810160405280929190818152602001828054610da490614561565b8015610df15780601f10610dc657610100808354040283529160200191610df1565b820191906000526020600020905b815481529060010190602001808311610dd457829003601f168201915b5050505050908060020154908060030154908060040154905085565b610e1e610e18611e25565b83611ee6565b610e5d576040517f08c379a0000000000000000000000000000000000000000000000000000000008152600401610e5490614191565b60405180910390fd5b610e698484848461239b565b50505050565b60606007805480602002602001604051908101604052809291908181526020016000905b8282101561101157838290600052602060002090600602016040518060c001604052908160008201548152602001600182018054610ed090614561565b80601f0160208091040260200160405190810160405280929190818152602001828054610efc90614561565b8015610f495780601f10610f1e57610100808354040283529160200191610f49565b820191906000526020600020905b815481529060010190602001808311610f2c57829003601f168201915b50505050508152602001600282018054610f6290614561565b80601f0160208091040260200160405190810160405280929190818152602001828054610f8e90614561565b8015610fdb5780601f10610fb057610100808354040283529160200191610fdb565b820191906000526020600020905b815481529060010190602001808311610fbe57829003601f168201915b50505050508152602001600382015481526020016004820154815260200160058201548152505081526020019060010190610e93565b50505050905090565b60606000600860008481526020019081526020016000206040518060c00160405290816000820154815260200160018201805461105690614561565b80601f016020809104026020016040519081016040528092919081815260200182805461108290614561565b80156110cf5780601f106110a4576101008083540402835291602001916110cf565b820191906000526020600020905b8154815290600101906020018083116110b257829003601f168201915b505050505081526020016002820180546110e890614561565b80601f016020809104026020016040519081016040528092919081815260200182805461111490614561565b80156111615780601f1061113657610100808354040283529160200191611161565b820191906000526020600020905b81548152906001019060200180831161114457829003601f168201915b5050505050815260200160038201548152602001600482015481526020016005820154815250509050600061119982606001516123f7565b905060006111aa83608001516123f7565b905060006111bb8460a001516123f7565b9050600061120185602001516111d0896123f7565b87604001518787876040516020016111ed96959493929190613c91565b6040516020818303038152906040526125a4565b90506000816040516020016112169190613d36565b6040516020818303038152906040529050809650505050505050919050565b61123d612d8d565b6000600960003373ffffffffffffffffffffffffffffffffffffffff1673ffffffffffffffffffffffffffffffffffffffff16815260200190815260200160002054905060008111156113fc57600860008281526020019081526020016000206040518060c0016040529081600082015481526020016001820180546112c290614561565b80601f01602080910402602001604051908101604052809291908181526020018280546112ee90614561565b801561133b5780601f106113105761010080835404028352916020019161133b565b820191906000526020600020905b81548152906001019060200180831161131e57829003601f168201915b5050505050815260200160028201805461135490614561565b80601f016020809104026020016040519081016040528092919081815260200182805461138090614561565b80156113cd5780601f106113a2576101008083540402835291602001916113cd565b820191906000526020600020905b8154815290600101906020018083116113b057829003601f168201915b50505050508152602001600382015481526020016004820154815260200160058201548152505091505061140a565b611404612d8d565b80925050505b90565b6000600960003373ffffffffffffffffffffffffffffffffffffffff1673ffffffffffffffffffffffffffffffffffffffff16815260200190815260200160002054905060006008600083815260200190815260200160002090506115206040518060600160405280603c81526020016147f2603c913982600101805461149390614561565b80601f01602080910402602001604051908101604052809291908181526020018280546114bf90614561565b801561150c5780601f106114e15761010080835404028352916020019161150c565b820191906000526020600020905b8154815290600101906020018083116114ef57829003601f168201915b505050505083600301548460050154612762565b6115f86040518060400160405280601b81526020017f426f73732025732068617320257320485020616e642025732041440000000000815250600a600001805461156990614561565b80601f016020809104026020016040519081016040528092919081815260200182805461159590614561565b80156115e25780601f106115b7576101008083540402835291602001916115e2565b820191906000526020600020905b8154815290600101906020018083116115c557829003601f168201915b5050505050600a60020154600a60040154612762565b600081600301541161163f576040517f08c379a0000000000000000000000000000000000000000000000000000000008152600401611636906140f1565b60405180910390fd5b6000600a6002015411611687576040517f08c379a000000000000000000000000000000000000000000000000000000000815260040161167e90613ff1565b60405180910390fd5b8060050154600a6002015410156116a8576000600a60020181905550611711565b60026004600a600201546116bc91906145dc565b14156116f157806005015460026116d3919061441d565b600a600201546116e39190614477565b600a60020181905550611710565b8060050154600a600201546117069190614477565b600a600201819055505b5b600a6004015481600301541015611731576000816003018190555061177c565b60016002600a6002015461174591906145dc565b141561175d578060030154816003018190555061177b565b600a6004015481600301546117729190614477565b81600301819055505b5b6117a360405180606001604052806025815260200161473760259139600a60020154612804565b6117c960405180606001604052806028815260200161479c602891398260030154612804565b7f838ab28464562786a6c4ab2311964b82fa60bd9b14aa7e856af1f3f18d41a414600a60020154826003015460405161180392919061427f565b60405180910390a15050565b6000600560008473ffffffffffffffffffffffffffffffffffffffff1673ffffffffffffffffffffffffffffffffffffffff16815260200190815260200160002060008373ffffffffffffffffffffffffffffffffffffffff1673ffffffffffffffffffffffffffffffffffffffff16815260200190815260200160002060009054906101000a900460ff16905092915050565b60006118af6006612220565b90506118bb33826128a0565b6040518060c0016040528083815260200160078481548110611906577f4e487b7100000000000000000000000000000000000000000000000000000000600052603260045260246000fd5b9060005260206000209060060201600101805461192290614561565b80601f016020809104026020016040519081016040528092919081815260200182805461194e90614561565b801561199b5780601f106119705761010080835404028352916020019161199b565b820191906000526020600020905b81548152906001019060200180831161197e57829003601f168201915b50505050508152602001600784815481106119df577f4e487b7100000000000000000000000000000000000000000000000000000000600052603260045260246000fd5b906000526020600020906006020160020180546119fb90614561565b80601f0160208091040260200160405190810160405280929190818152602001828054611a2790614561565b8015611a745780601f10611a4957610100808354040283529160200191611a74565b820191906000526020600020905b815481529060010190602001808311611a5757829003601f168201915b5050505050815260200160078481548110611ab8577f4e487b7100000000000000000000000000000000000000000000000000000000600052603260045260246000fd5b906000526020600020906006020160030154815260200160078481548110611b09577f4e487b7100000000000000000000000000000000000000000000000000000000600052603260045260246000fd5b906000526020600020906006020160040154815260200160078481548110611b5a577f4e487b7100000000000000000000000000000000000000000000000000000000600052603260045260246000fd5b90600052602060002090600602016005015481525060086000838152602001908152602001600020600082015181600001556020820151816001019080519060200190611ba8929190612dc3565b506040820151816002019080519060200190611bc5929190612dc3565b50606082015181600301556080820151816004015560a08201518160050155905050611c0a6040518060600160405280602e81526020016147c4602e913982846128be565b80600960003373ffffffffffffffffffffffffffffffffffffffff1673ffffffffffffffffffffffffffffffffffffffff16815260200190815260200160002081905550611c586006611d39565b7f4bc303fd457a97b4691b9af582ce71868a3d258638c8d4f8c60988a0f0bfb8cd338284604051611c8b93929190613dbf565b60405180910390a15050565b611d3384848484604051602401611cb19493929190613e55565b6040516020818303038152906040527f8d142cdd000000000000000000000000000000000000000000000000000000007bffffffffffffffffffffffffffffffffffffffffffffffffffffffff19166020820180517bffffffffffffffffffffffffffffffffffffffffffffffffffffffff838183161783525050505061295d565b50505050565b6001816000016000828254019250508190555050565b60007f01ffc9a7000000000000000000000000000000000000000000000000000000007bffffffffffffffffffffffffffffffffffffffffffffffffffffffff1916827bffffffffffffffffffffffffffffffffffffffffffffffffffffffff1916149050919050565b60008073ffffffffffffffffffffffffffffffffffffffff166002600084815260200190815260200160002060009054906101000a900473ffffffffffffffffffffffffffffffffffffffff1673ffffffffffffffffffffffffffffffffffffffff1614159050919050565b600033905090565b816004600083815260200190815260200160002060006101000a81548173ffffffffffffffffffffffffffffffffffffffff021916908373ffffffffffffffffffffffffffffffffffffffff160217905550808273ffffffffffffffffffffffffffffffffffffffff16611ea083610941565b73ffffffffffffffffffffffffffffffffffffffff167f8c5be1e5ebec7d5bd14f71427d1e84f3dd0314c0f7b2291e5b200ac8c7c3b92560405160405180910390a45050565b6000611ef182611db9565b611f30576040517f08c379a0000000000000000000000000000000000000000000000000000000008152600401611f2790614071565b60405180910390fd5b6000611f3b83610941565b90508073ffffffffffffffffffffffffffffffffffffffff168473ffffffffffffffffffffffffffffffffffffffff161480611faa57508373ffffffffffffffffffffffffffffffffffffffff16611f9284610724565b73ffffffffffffffffffffffffffffffffffffffff16145b80611fbb5750611fba818561180f565b5b91505092915050565b8273ffffffffffffffffffffffffffffffffffffffff16611fe482610941565b73ffffffffffffffffffffffffffffffffffffffff161461203a576040517f08c379a000000000000000000000000000000000000000000000000000000000815260040161203190614151565b60405180910390fd5b600073ffffffffffffffffffffffffffffffffffffffff168273ffffffffffffffffffffffffffffffffffffffff1614156120aa576040517f08c379a00000000000000000000000000000000000000000000000000000000081526004016120a190614031565b60405180910390fd5b6120b5838383612986565b6120c0600082611e2d565b6001600360008573ffffffffffffffffffffffffffffffffffffffff1673ffffffffffffffffffffffffffffffffffffffff16815260200190815260200160002060008282546121109190614477565b925050819055506001600360008473ffffffffffffffffffffffffffffffffffffffff1673ffffffffffffffffffffffffffffffffffffffff16815260200190815260200160002060008282546121679190614396565b92505081905550816002600083815260200190815260200160002060006101000a81548173ffffffffffffffffffffffffffffffffffffffff021916908373ffffffffffffffffffffffffffffffffffffffff160217905550808273ffffffffffffffffffffffffffffffffffffffff168473ffffffffffffffffffffffffffffffffffffffff167fddf252ad1be2c89b69c2b068fc378daa952ba7f163c4a11628f55a4df523b3ef60405160405180910390a4505050565b600081600001549050919050565b8173ffffffffffffffffffffffffffffffffffffffff168373ffffffffffffffffffffffffffffffffffffffff16141561229d576040517f08c379a000000000000000000000000000000000000000000000000000000000815260040161229490614051565b60405180910390fd5b80600560008573ffffffffffffffffffffffffffffffffffffffff1673ffffffffffffffffffffffffffffffffffffffff16815260200190815260200160002060008473ffffffffffffffffffffffffffffffffffffffff1673ffffffffffffffffffffffffffffffffffffffff16815260200190815260200160002060006101000a81548160ff0219169083151502179055508173ffffffffffffffffffffffffffffffffffffffff168373ffffffffffffffffffffffffffffffffffffffff167f17307eab39ab6107e8899845ad3d59bd9653f200f220920489ca2b5937696c318360405161238e9190613e18565b60405180910390a3505050565b6123a6848484611fc4565b6123b28484848461298b565b6123f1576040517f08c379a00000000000000000000000000000000000000000000000000000000081526004016123e890613fd1565b60405180910390fd5b50505050565b6060600082141561243f576040518060400160405280600181526020017f3000000000000000000000000000000000000000000000000000000000000000815250905061259f565b600082905060005b6000821461247157808061245a90614593565b915050600a8261246a91906143ec565b9150612447565b60008167ffffffffffffffff8111156124b3577f4e487b7100000000000000000000000000000000000000000000000000000000600052604160045260246000fd5b6040519080825280601f01601f1916602001820160405280156124e55781602001600182028036833780820191505090505b5090505b60008514612598576001826124fe9190614477565b9150600a8561250d91906145dc565b60306125199190614396565b60f81b818381518110612555577f4e487b7100000000000000000000000000000000000000000000000000000000600052603260045260246000fd5b60200101907effffffffffffffffffffffffffffffffffffffffffffffffffffffffffffff1916908160001a905350600a8561259191906143ec565b94506124e9565b8093505050505b919050565b606060008251905060008114156125cd576040518060200160405280600081525091505061275d565b600060036002836125de9190614396565b6125e891906143ec565b60046125f4919061441d565b905060006020826126059190614396565b67ffffffffffffffff811115612644577f4e487b7100000000000000000000000000000000000000000000000000000000600052604160045260246000fd5b6040519080825280601f01601f1916602001820160405280156126765781602001600182028036833780820191505090505b509050600060405180606001604052806040815260200161475c604091399050600181016020830160005b8681101561271a5760038101905062ffffff818a015116603f8160121c168401518060081b905060ff603f83600c1c1686015116810190508060081b905060ff603f8360061c1686015116810190508060081b905060ff603f831686015116810190508060e01b905080845260048401935050506126a1565b50600386066001811461273457600281146127445761274f565b613d3d60f01b600283035261274f565b603d60f81b60018303525b508484525050819450505050505b919050565b6127fe8484848460405160240161277c9493929190613eaf565b6040516020818303038152906040527fd5cf17d0000000000000000000000000000000000000000000000000000000007bffffffffffffffffffffffffffffffffffffffffffffffffffffffff19166020820180517bffffffffffffffffffffffffffffffffffffffffffffffffffffffff838183161783525050505061295d565b50505050565b61289c828260405160240161281a929190613f63565b6040516020818303038152906040527f9710a9d0000000000000000000000000000000000000000000000000000000007bffffffffffffffffffffffffffffffffffffffffffffffffffffffff19166020820180517bffffffffffffffffffffffffffffffffffffffffffffffffffffffff838183161783525050505061295d565b5050565b6128ba828260405180602001604052806000815250612b22565b5050565b6129588383836040516024016128d693929190613f93565b6040516020818303038152906040527f969cdd03000000000000000000000000000000000000000000000000000000007bffffffffffffffffffffffffffffffffffffffffffffffffffffffff19166020820180517bffffffffffffffffffffffffffffffffffffffffffffffffffffffff838183161783525050505061295d565b505050565b60008151905060006a636f6e736f6c652e6c6f679050602083016000808483855afa5050505050565b505050565b60006129ac8473ffffffffffffffffffffffffffffffffffffffff16612b7d565b15612b15578373ffffffffffffffffffffffffffffffffffffffff1663150b7a026129d5611e25565b8786866040518563ffffffff1660e01b81526004016129f79493929190613d73565b602060405180830381600087803b158015612a1157600080fd5b505af1925050508015612a4257506040513d601f19601f82011682018060405250810190612a3f9190613107565b60015b612ac5573d8060008114612a72576040519150601f19603f3d011682016040523d82523d6000602084013e612a77565b606091505b50600081511415612abd576040517f08c379a0000000000000000000000000000000000000000000000000000000008152600401612ab490613fd1565b60405180910390fd5b805181602001fd5b63150b7a0260e01b7bffffffffffffffffffffffffffffffffffffffffffffffffffffffff1916817bffffffffffffffffffffffffffffffffffffffffffffffffffffffff191614915050612b1a565b600190505b949350505050565b612b2c8383612b90565b612b39600084848461298b565b612b78576040517f08c379a0000000000000000000000000000000000000000000000000000000008152600401612b6f90613fd1565b60405180910390fd5b505050565b600080823b905060008111915050919050565b600073ffffffffffffffffffffffffffffffffffffffff168273ffffffffffffffffffffffffffffffffffffffff161415612c00576040517f08c379a0000000000000000000000000000000000000000000000000000000008152600401612bf790614111565b60405180910390fd5b612c0981611db9565b15612c49576040517f08c379a0000000000000000000000000000000000000000000000000000000008152600401612c4090614011565b60405180910390fd5b612c5560008383612986565b6001600360008473ffffffffffffffffffffffffffffffffffffffff1673ffffffffffffffffffffffffffffffffffffffff1681526020019081526020016000206000828254612ca59190614396565b92505081905550816002600083815260200190815260200160002060006101000a81548173ffffffffffffffffffffffffffffffffffffffff021916908373ffffffffffffffffffffffffffffffffffffffff160217905550808273ffffffffffffffffffffffffffffffffffffffff16600073ffffffffffffffffffffffffffffffffffffffff167fddf252ad1be2c89b69c2b068fc378daa952ba7f163c4a11628f55a4df523b3ef60405160405180910390a45050565b6040518060a0016040528060608152602001606081526020016000815260200160008152602001600081525090565b6040518060c001604052806000815260200160608152602001606081526020016000815260200160008152602001600081525090565b828054612dcf90614561565b90600052602060002090601f016020900481019282612df15760008555612e38565b82601f10612e0a57805160ff1916838001178555612e38565b82800160010185558215612e38579182015b82811115612e37578251825591602001919060010190612e1c565b5b509050612e459190612e49565b5090565b5b80821115612e62576000816000905550600101612e4a565b5090565b6000612e79612e74846142d9565b6142a8565b905082815260208101848484011115612e9157600080fd5b612e9c84828561451f565b509392505050565b600081359050612eb3816146da565b92915050565b600081359050612ec8816146f1565b92915050565b600081359050612edd81614708565b92915050565b600081519050612ef281614708565b92915050565b600082601f830112612f0957600080fd5b8135612f19848260208601612e66565b91505092915050565b600081359050612f318161471f565b92915050565b600060208284031215612f4957600080fd5b6000612f5784828501612ea4565b91505092915050565b60008060408385031215612f7357600080fd5b6000612f8185828601612ea4565b9250506020612f9285828601612ea4565b9150509250929050565b600080600060608486031215612fb157600080fd5b6000612fbf86828701612ea4565b9350506020612fd086828701612ea4565b9250506040612fe186828701612f22565b9150509250925092565b6000806000806080858703121561300157600080fd5b600061300f87828801612ea4565b945050602061302087828801612ea4565b935050604061303187828801612f22565b925050606085013567ffffffffffffffff81111561304e57600080fd5b61305a87828801612ef8565b91505092959194509250565b6000806040838503121561307957600080fd5b600061308785828601612ea4565b925050602061309885828601612eb9565b9150509250929050565b600080604083850312156130b557600080fd5b60006130c385828601612ea4565b92505060206130d485828601612f22565b9150509250929050565b6000602082840312156130f057600080fd5b60006130fe84828501612ece565b91505092915050565b60006020828403121561311957600080fd5b600061312784828501612ee3565b91505092915050565b60006020828403121561314257600080fd5b600061315084828501612f22565b91505092915050565b60006131658383613b53565b905092915050565b613176816144ab565b82525050565b600061318782614319565b6131918185614347565b9350836020820285016131a385614309565b8060005b858110156131df57848403895281516131c08582613159565b94506131cb8361433a565b925060208a019950506001810190506131a7565b50829750879550505050505092915050565b6131fa816144bd565b82525050565b600061320b82614324565b6132158185614358565b935061322581856020860161452e565b61322e816146c9565b840191505092915050565b60006132448261432f565b61324e8185614369565b935061325e81856020860161452e565b613267816146c9565b840191505092915050565b600061327d8261432f565b613287818561437a565b935061329781856020860161452e565b6132a0816146c9565b840191505092915050565b60006132b68261432f565b6132c0818561438b565b93506132d081856020860161452e565b80840191505092915050565b60006132e9600b8361438b565b91507f202d2d204e465420233a200000000000000000000000000000000000000000006000830152600b82019050919050565b600061332960328361437a565b91507f4552433732313a207472616e7366657220746f206e6f6e20455243373231526560008301527f63656976657220696d706c656d656e74657200000000000000000000000000006020830152604082019050919050565b600061338f60288361437a565b91507f4572726f723a20626f7373206d757374206861766520485020746f206174746160008301527f636b20626f73732e0000000000000000000000000000000000000000000000006020830152604082019050919050565b60006133f5601c8361437a565b91507f4552433732313a20746f6b656e20616c7265616479206d696e746564000000006000830152602082019050919050565b600061343560328361438b565b91507f222c20226465736372697074696f6e223a2022416e2065706963204e4654222c60008301527f2022696d616765223a2022697066733a2f2f00000000000000000000000000006020830152603282019050919050565b600061349b600e8361438b565b91507f2c20226d61785f76616c7565223a0000000000000000000000000000000000006000830152600e82019050919050565b60006134db60248361437a565b91507f4552433732313a207472616e7366657220746f20746865207a65726f2061646460008301527f72657373000000000000000000000000000000000000000000000000000000006020830152604082019050919050565b600061354160198361437a565b91507f4552433732313a20617070726f766520746f2063616c6c6572000000000000006000830152602082019050919050565b6000613581602c8361437a565b91507f4552433732313a206f70657261746f7220717565727920666f72206e6f6e657860008301527f697374656e7420746f6b656e00000000000000000000000000000000000000006020830152604082019050919050565b60006135e760388361437a565b91507f4552433732313a20617070726f76652063616c6c6572206973206e6f74206f7760008301527f6e6572206e6f7220617070726f76656420666f7220616c6c00000000000000006020830152604082019050919050565b600061364d602a8361437a565b91507f4552433732313a2062616c616e636520717565727920666f7220746865207a6560008301527f726f2061646472657373000000000000000000000000000000000000000000006020830152604082019050919050565b60006136b360298361437a565b91507f4552433732313a206f776e657220717565727920666f72206e6f6e657869737460008301527f656e7420746f6b656e00000000000000000000000000000000000000000000006020830152604082019050919050565b6000613719602d8361437a565b91507f4572726f723a20636861726163746572206d757374206861766520485020746f60008301527f2061747461636b20626f73732e000000000000000000000000000000000000006020830152604082019050919050565b600061377f60048361438b565b91507f7d205d7d000000000000000000000000000000000000000000000000000000006000830152600482019050919050565b60006137bf60208361437a565b91507f4552433732313a206d696e7420746f20746865207a65726f20616464726573736000830152602082019050919050565b60006137ff602c8361437a565b91507f4552433732313a20617070726f76656420717565727920666f72206e6f6e657860008301527f697374656e7420746f6b656e00000000000000000000000000000000000000006020830152604082019050919050565b600061386560298361437a565b91507f4552433732313a207472616e73666572206f6620746f6b656e2074686174206960008301527f73206e6f74206f776e00000000000000000000000000000000000000000000006020830152604082019050919050565b60006138cb600a8361438b565b91507f7b226e616d65223a2022000000000000000000000000000000000000000000006000830152600a82019050919050565b600061390b60218361437a565b91507f4552433732313a20617070726f76616c20746f2063757272656e74206f776e6560008301527f72000000000000000000000000000000000000000000000000000000000000006020830152604082019050919050565b6000613971601d8361438b565b91507f646174613a6170706c69636174696f6e2f6a736f6e3b6261736536342c0000006000830152601d82019050919050565b60006139b160318361437a565b91507f4552433732313a207472616e736665722063616c6c6572206973206e6f74206f60008301527f776e6572206e6f7220617070726f7665640000000000000000000000000000006020830152604082019050919050565b6000613a17603d8361438b565b91507f222c202261747472696275746573223a205b207b202274726169745f7479706560008301527f223a20224865616c746820506f696e7473222c202276616c7565223a200000006020830152603d82019050919050565b6000613a7d602d8361438b565b91507f7d2c207b202274726169745f74797065223a202241747461636b2044616d616760008301527f65222c202276616c7565223a20000000000000000000000000000000000000006020830152602d82019050919050565b600060a0830160008301518482036000860152613af38282613239565b91505060208301518482036020860152613b0d8282613239565b9150506040830151613b226040860182613c73565b506060830151613b356060860182613c73565b506080830151613b486080860182613c73565b508091505092915050565b600060c083016000830151613b6b6000860182613c73565b5060208301518482036020860152613b838282613239565b91505060408301518482036040860152613b9d8282613239565b9150506060830151613bb26060860182613c73565b506080830151613bc56080860182613c73565b5060a0830151613bd860a0860182613c73565b508091505092915050565b600060c083016000830151613bfb6000860182613c73565b5060208301518482036020860152613c138282613239565b91505060408301518482036040860152613c2d8282613239565b9150506060830151613c426060860182613c73565b506080830151613c556080860182613c73565b5060a0830151613c6860a0860182613c73565b508091505092915050565b613c7c81614515565b82525050565b613c8b81614515565b82525050565b6000613c9c826138be565b9150613ca882896132ab565b9150613cb3826132dc565b9150613cbf82886132ab565b9150613cca82613428565b9150613cd682876132ab565b9150613ce182613a0a565b9150613ced82866132ab565b9150613cf88261348e565b9150613d0482856132ab565b9150613d0f82613a70565b9150613d1b82846132ab565b9150613d2682613772565b9150819050979650505050505050565b6000613d4182613964565b9150613d4d82846132ab565b915081905092915050565b6000602082019050613d6d600083018461316d565b92915050565b6000608082019050613d88600083018761316d565b613d95602083018661316d565b613da26040830185613c82565b8181036060830152613db48184613200565b905095945050505050565b6000606082019050613dd4600083018661316d565b613de16020830185613c82565b613dee6040830184613c82565b949350505050565b60006020820190508181036000830152613e10818461317c565b905092915050565b6000602082019050613e2d60008301846131f1565b92915050565b60006020820190508181036000830152613e4d8184613272565b905092915050565b60006080820190508181036000830152613e6f8187613272565b90508181036020830152613e838186613272565b9050613e926040830185613c82565b8181036060830152613ea48184613272565b905095945050505050565b60006080820190508181036000830152613ec98187613272565b90508181036020830152613edd8186613272565b9050613eec6040830185613c82565b613ef96060830184613c82565b95945050505050565b600060a0820190508181036000830152613f1c8188613272565b90508181036020830152613f308187613272565b9050613f3f6040830186613c82565b613f4c6060830185613c82565b613f596080830184613c82565b9695505050505050565b60006040820190508181036000830152613f7d8185613272565b9050613f8c6020830184613c82565b9392505050565b60006060820190508181036000830152613fad8186613272565b9050613fbc6020830185613c82565b613fc96040830184613c82565b949350505050565b60006020820190508181036000830152613fea8161331c565b9050919050565b6000602082019050818103600083015261400a81613382565b9050919050565b6000602082019050818103600083015261402a816133e8565b9050919050565b6000602082019050818103600083015261404a816134ce565b9050919050565b6000602082019050818103600083015261406a81613534565b9050919050565b6000602082019050818103600083015261408a81613574565b9050919050565b600060208201905081810360008301526140aa816135da565b9050919050565b600060208201905081810360008301526140ca81613640565b9050919050565b600060208201905081810360008301526140ea816136a6565b9050919050565b6000602082019050818103600083015261410a8161370c565b9050919050565b6000602082019050818103600083015261412a816137b2565b9050919050565b6000602082019050818103600083015261414a816137f2565b9050919050565b6000602082019050818103600083015261416a81613858565b9050919050565b6000602082019050818103600083015261418a816138fe565b9050919050565b600060208201905081810360008301526141aa816139a4565b9050919050565b600060208201905081810360008301526141cb8184613ad6565b905092915050565b600060208201905081810360008301526141ed8184613be3565b905092915050565b600060208201905061420a6000830184613c82565b92915050565b600060c0820190506142256000830189613c82565b81810360208301526142378188613272565b9050818103604083015261424b8187613272565b905061425a6060830186613c82565b6142676080830185613c82565b61427460a0830184613c82565b979650505050505050565b60006040820190506142946000830185613c82565b6142a16020830184613c82565b9392505050565b6000604051905081810181811067ffffffffffffffff821117156142cf576142ce61469a565b5b8060405250919050565b600067ffffffffffffffff8211156142f4576142f361469a565b5b601f19601f8301169050602081019050919050565b6000819050602082019050919050565b600081519050919050565b600081519050919050565b600081519050919050565b6000602082019050919050565b600082825260208201905092915050565b600082825260208201905092915050565b600082825260208201905092915050565b600082825260208201905092915050565b600081905092915050565b60006143a182614515565b91506143ac83614515565b9250827fffffffffffffffffffffffffffffffffffffffffffffffffffffffffffffffff038211156143e1576143e061460d565b5b828201905092915050565b60006143f782614515565b915061440283614515565b9250826144125761441161463c565b5b828204905092915050565b600061442882614515565b915061443383614515565b9250817fffffffffffffffffffffffffffffffffffffffffffffffffffffffffffffffff048311821515161561446c5761446b61460d565b5b828202905092915050565b600061448282614515565b915061448d83614515565b9250828210156144a05761449f61460d565b5b828203905092915050565b60006144b6826144f5565b9050919050565b60008115159050919050565b60007fffffffff0000000000000000000000000000000000000000000000000000000082169050919050565b600073ffffffffffffffffffffffffffffffffffffffff82169050919050565b6000819050919050565b82818337600083830152505050565b60005b8381101561454c578082015181840152602081019050614531565b8381111561455b576000848401525b50505050565b6000600282049050600182168061457957607f821691505b6020821081141561458d5761458c61466b565b5b50919050565b600061459e82614515565b91507fffffffffffffffffffffffffffffffffffffffffffffffffffffffffffffffff8214156145d1576145d061460d565b5b600182019050919050565b60006145e782614515565b91506145f283614515565b9250826146025761460161463c565b5b828206905092915050565b7f4e487b7100000000000000000000000000000000000000000000000000000000600052601160045260246000fd5b7f4e487b7100000000000000000000000000000000000000000000000000000000600052601260045260246000fd5b7f4e487b7100000000000000000000000000000000000000000000000000000000600052602260045260246000fd5b7f4e487b7100000000000000000000000000000000000000000000000000000000600052604160045260246000fd5b6000601f19601f8301169050919050565b6146e3816144ab565b81146146ee57600080fd5b50565b6146fa816144bd565b811461470557600080fd5b50565b614711816144c9565b811461471c57600080fd5b50565b61472881614515565b811461473357600080fd5b5056fe506c617965722061747461636b656420626f73732e204e657720626f73732068703a2025734142434445464748494a4b4c4d4e4f505152535455565758595a6162636465666768696a6b6c6d6e6f707172737475767778797a303132333435363738392b2f426f73732061747461636b656420706c617965722e204e657720706c617965722068703a2025730a4d696e746564204e465420772f20746f6b656e496420257320616e6420636861726163746572496e6465782025730a506c6179657220772f206368617261637465722025732061626f757420746f2061747461636b2e2048617320257320485020616e64202573204144a26469706673582212209027eadcf2c8166af8202f9d6a0250b1bdcb35f3082845754a8fb657f46b62ec64736f6c63430008000033446f6e6520696e697469616c697a696e6720626f737320257320772f2048502025732c20696d67202573",
  "linkReferences": {},
  "deployedLinkReferences": {}
}